:020000040800F2
:1000000040050020050100082716000873130008AA
:1000100025160008DD020008ED1B000800000000A6
:100020000000000000000000000000009D17000814
:10003000DF02000800000000291600089F170008D2
:100040001F0100081F0100081F0100081F01000810
:100050001F0100081F0100081F0100081F01000800
:100060001F0100081F0100081F0100081F010008F0
:100070001F0100081F0100081F0100081F010008E0
:100080001F0100081F0100081F0100081F010008D0
:100090001F0100081F0100081F0100081F010008C0
:1000A0001F0100081F0100081F0100081F010008B0
:1000B0001F0100081F0100081F0100081F010008A0
:1000C0001F0100081F0100081F0100081F01000890
:1000D0001F010008E11B00081F0100081F010008A4
:1000E0001F0100081F0100081F010008DFF810D0E1
:1000F00000F02CF800480047751C0008AFF30080A2
:10010000400500200648804706480047FEE7FEE716
:10011000FEE7FEE7FEE7FEE7FEE7FEE7FEE7FEE7B7
:1001200001180008ED000008D2B201E000F8012B30
:10013000491EFBD270470022F6E710B513460A4667
:1001400004461946FFF7F0FF204610BD064C074D48
:1001500006E0E06840F0010394E807009847103497
:10016000AC42F6D3FFF7C6FFCC1F0008EC1F000817
:100170002DE9F05F4FF4617A4FF4FA6B54465D4617
:100180004FF4C86640F21458DFF84C9101E0B442D5
:1001900007DCD9F800004F4644630A2000F022F93A
:1001A000B9464746BD4205DBD9F8000085630A2001
:1001B00000F018F90A340A3DB442E8DDBD42E6DA3F
:1001C0004FF47A7000F00EF9D9F8001040F22620B2
:1001D0004F4608645D46584600F004F9B14634467F
:1001E00040F21456D04601E0444504DB38684463CD
:1001F0000A2000F0F7F8AE4204DC386886630A2073
:1002000000F0F0F80A3C0A364445EDDAAE42EBDD88
:100210004FF47A7000F0E6F840F2DC5440F6C41A6D
:100220003868C4630A2000F0DDF80A345445F7DD6D
:10023000C34644464D464FF4FA6640F21458B94658
:1002400001E0AC4207DCD9F800004F4644630A20C5
:1002500000F0C8F8B9464746BE4205DBD9F80000B1
:1002600086630A2000F0BEF80A340A3EAC42E8DD9C
:10027000BE42E6DA4FF4FA7000F0B4F8D9F8001094
:100280004FF47A704E46086400F0ACF84446D84605
:100290004FF4FA6701E0454504DB306845630A2006
:1002A00000F0A0F8BC4204DC306884630A2000F04F
:1002B00099F80A340A3D4545EDDABC42EBDD544677
:1002C00040F2DC553068C4630A2000F08BF80A3C29
:1002D000AC42F7DABDE8F09F68000020FEE7704707
:1002E00072B6FEE710B501225103044800F081F90F
:1002F000034940F2DC500968486310BD001001401A
:10030000B000002010B590F821100022022905D07D
:100310000421816380F82020012010BD01680B6852
:1003200023F00E030B6001680B6823F001030B60E0
:1003300090F84030C46B012101FA03F3636080F848
:10034000211080F82020104610BD000010B590F854
:1003500021100024022903D00421816301243DE0FF
:1003600001680A6822F00E020A6001680A6822F039
:1003700001020A601A4A0168914201D1012121E07B
:10038000174A1432914201D110211BE0144A28323D
:10039000914201D1891515E0114A3C32914201D1B7
:1003A00089140FE00E4A5032914202D14FF480314D
:1003B00008E00B4A6432914202D14FF4801101E00F
:1003C0004FF08071064A083A5160012180F82110EF
:1003D000002180F82010416B01B18847204610BDF4
:1003E0000800024070B5044600F008F90546601C9C
:1003F00002D004480078044400F000F9401BA042F9
:10040000FAD370BD0C0000202DE9F84FDFF8B89149
:100410000024A9F1040B23460F2709F1040AABF1CC
:10042000040EC9E00125A5402A40AA427DD1674EAD
:10043000D1F804C0ACEB0608B44532D014DCBCF1F2
:10044000030F3AD009DCBCF1000F2AD0BCF1010F38
:100450001CD0BCF1020F31D11DE0BCF1110F17D03F
:10046000BCF1120F2AD119E0B8F5881F19D006DCAB
:10047000B8F5803F15D0B8F5801F1FD111E0B8F551
:10048000001F0ED0B8F5041F18D10AE0CB6815E0A4
:10049000CB681B1D12E0CB6808330FE0CB680C3330
:1004A0000CE08B682BB1012B4FF0080303D04561A2
:1004B00004E0042302E0056100E00023FF2A01D8E4
:1004C000064601E000F104064FEA840501D9A5F1D2
:1004D0002005D6F8008007FA05FC28EA0C0803FA84
:1004E00005F548EA0508C6F800804D68ED0062D5BC
:1004F000374DAE6946F00106AE61AD6924F00306E2
:1005000005F001050095334D06EB050CDCF80850AD
:10051000A607360F07FA06F825EA0805DFF8B880BF
:10052000404503D14FF0000817E044E0DFF8AC800D
:10053000404502D14FF001080FE0DFF8A4804045AC
:1005400002D14FF0020808E0DFF89880404502D160
:100550004FF0030801E04FF0040808FA06F848EAF3
:100560000508CCF808804D68D9F80060ED024D46CA
:1005700001D5164300E096432E604D68DAF800601E
:10058000AD02554601D5164300E096432E604D68F6
:10059000DBF80060AD035D4601D5164300E09643ED
:1005A0002E604D68DEF80060ED03754601D51643F8
:1005B00000E096432E60641C0D682A46E5407FF4F7
:1005C00031AFBDE8F88F00000804014000001110B1
:1005D000001002400000014000080140000C0140F2
:1005E00000100140001401408068084000D0012044
:1005F00070470AB1016170470904FBE70148806850
:10060000704700000C000020024881680278114405
:10061000816070470C000020074810B5016841F068
:1006200010010160032000F075F80F2000F006F8BB
:1006300000F024F8002010BD0020024070B50D4DE0
:1006400004464FF47A712878B1FBF0F00A49096842
:10065000B1FBF0F000F0DCFA48B9102C07D2002210
:100660002146501E00F036F800206C6070BD01205D
:1006700070BD00000C000020180000200C4808B5D8
:10068000816941F001018161816901F001010091FD
:10069000C16941F08051C161C06900F08050009093
:1006A0000448416821F0E06141F00071416008BDFB
:1006B0000010024000000140002809DB00F01F028A
:1006C000012191404009800000F1E020C0F80011B4
:1006D00070470000F0B40E4B1B680C46C3F30223B6
:1006E000C3F10705042D00D90425191D072901D2DE
:1006F000002300E0DB1E012606FA05F1491E214019
:1007000099409E40761E16403143F0BC01F078BA05
:100710000CED00E0064900F0070208684FF6FF0301
:10072000184040EA0220034A104308607047000066
:100730000CED00E00000FA052DE9F0470F4605003A
:1007400061D0434E306800F00700B84209D23068EB
:1007500020F0070038433060306800F00700B842EE
:1007600051D128683B4C810712D5400703D56068FA
:1007700040F4E06060602878000703D5606840F4CA
:10078000605060606068A96820F0F0000843606015
:100790002878C00728D06868012810D0216802286E
:1007A00010D0890700292EDA616821F00301014386
:1007B0006160FFF723FF804641F288390DE0216830
:1007C0008903EFE78901EDE7FFF718FFA0EB0801C8
:1007D000494502D90320BDE8F0876068696800F0E8
:1007E0000C00B0EB810FEFD1306800F00700B84289
:1007F0000BD9306820F0070038433060306800F0D3
:100800000700B84201D00120E5E72878400705D568
:100810006068E96820F4E0600843606028780007B9
:1008200006D56068296920F4605040EAC100606024
:1008300000F038F86168084AC1F30311515CC84000
:100840000649086006480068FFF7F8FE0020C2E786
:100850000020024000100240B21F000818000020D3
:10086000100000200448054900684968044AC1F3A3
:100870000221515CC840704718000020001002405F
:10088000C21F00080448054900684968044AC1F3CA
:10089000C221515CC840704718000020001002407F
:1008A000C21F00080E4A51680E4801F00C03042BC9
:1008B00011D0082B0FD10C48C1F38343C903C05C8E
:1008C0000AD55168084AC1F34041921E515C054A5D
:1008D0005043B0FBF1F070470449484370470000B3
:1008E0000010024000127A00A21F000800093D001B
:1008F0002DE9F84F040070D02078C04DC00749D0D2
:100900006868C0F38100012807D06868C0F38100DF
:10091000022809D16868C00306D52868800339D544
:1009200060680028E7D035E06068B0F5803F0BD004
:1009300010B1B0F5A02F11D0286820F480302860C5
:10094000286820F4802002E0286840F48030286085
:10095000606890B1FFF752FE06460AE0286840F44E
:1009600080202860F0E700BFFFF748FE801B642866
:1009700073D828688003F7D50CE0FFF73FFE0646E2
:1009800005E000BFFFF73AFE801B6428F0D8286816
:100990008003F7D420789A4E80074FF001094FF07A
:1009A000000839D5686810F00C0F07D06868C0F3EC
:1009B0008100022809D16868C00306D4286880072E
:1009C00014D52069012808D110E02069B0B1C6F81B
:1009D0000090FFF713FE074605E00AE1FFF70EFE61
:1009E000C01B0228C4D828688007F7D52868616929
:1009F00020F0F80040EAC10028600DE0C6F8008051
:100A0000FFF7FCFD074604E0FFF7F8FDC01B0228D6
:100A100023D828688007F7D4207800072CD5794898
:100A2000A169D9B1C0F80090FFF7E8FD074604E0DE
:100A3000FFF7E4FDC01B02280FD8686A8007F7D5CE
:100A400071484FF4FA510068B0FBF1F0009000BF1C
:100A50000098411E0091FAD20EE080E0C0F80080BC
:100A6000FFF7CCFD074604E0FFF7C8FDC01B0228D6
:100A700075D8686A8007F7D42078400760D5E869A0
:100A80000027C00008D4E86940F08050E861E869B8
:100A9000012700F0805000905C480168C90513D41C
:100AA0000168834641F480710160FFF7A7FD82462B
:100AB00006E000BFFFF7A2FDA0EB0A0064284ED8B5
:100AC000DBF80000C005F5D5E06801280AD008B1C0
:100AD000052813D0286A20F001002862286A20F037
:100AE000040002E0286A40F001002862E06841F258
:100AF000883B98B1FFF782FD82460BE0286A40F000
:100B000004002862EEE700BFFFF778FDA0EB0A01C2
:100B100059455AD8286A8007F6D50CE0FFF76EFDD4
:100B2000824605E0FFF76AFDA0EB0A0159454CD863
:100B3000286A8007F6D41FB1E86920F08050E86188
:100B4000E06988B36968C1F38101022944D00228B1
:100B5000C6F8608004D0FFF751FD044638E034E069
:100B6000FFF74CFD074604E0FFF748FDC01B0228D5
:100B70002BD828688001F7D4206AB0F5803F05D1D2
:100B80006868A16820F4003008436860D4E908016F
:100B90000843696821F4741108436860C6F86090DE
:100BA000FFF72CFD044606E025E000BFFFF726FD19
:100BB000001B022809D828688001F7D51BE000BF78
:100BC000FFF71CFD001B022802D90320BDE8F88FA7
:100BD00028688001F4D40EE00128F7D06868226A02
:100BE00000F48031914204D1616A00F470108842AF
:100BF00001D00120EAE70020E8E7000000100240F1
:100C00000000424280044242180000200070004070
:100C100010B5401EB0F1807F01D3012010BD4FF010
:100C2000E02460610F21601700F0EAFF0020A0615E
:100C300007202061002010BD10B590F83C20012A4B
:100C400022D0012280F83C20CA688C6822F44072CD
:100C500022434C6822F4806222430C6822F4006232
:100C600022430C6922F4805222434C6922F4005240
:100C70002243C969002322F480420A4301684A647E
:100C800080F83C30002010BD022010BD70B590F8F7
:100C90003C20012A26D0012480F83C40022280F822
:100CA0003D2003685A689D6822F070060A68324346
:100CB0005A600D4B02689A4208D0B2F1804F05D0BD
:100CC0000A4B9A4202D00A4B9A4204D1496825F055
:100CD00080031943916080F83D40002180F83C106A
:100CE000084670BD022070BD002C01400004004089
:100CF0000008004010B586B00021009101910291DA
:100D00000391234B02682349022423489A4209D1C4
:100D10008A6942F004028A61896901F00401049140
:100D200081152CE0B2F1804F20D01C4B9A422CD17F
:100D30008A6942F004028A618A6902F0040204921C
:100D40008A6942F008028A618969039401F0080106
:100D50000491C021CDE900146946FFF755FB03203B
:100D6000CDE9000469460E4803940CE08A6942F01C
:100D700004028A61896901F0040104910F21CDE91F
:100D8000001469460394FFF73FFB06B010BD000056
:100D9000002C014000100240000801400004004007
:100DA000000C014070B5044690F83C0000260D464A
:100DB00001280FD0012084F83C006AB1042A1DD01C
:100DC000082A2FD00C2A3FD00126002084F83C00AE
:100DD000304670BD022070BD206800F057FD2068CD
:100DE000816941F0080181612068816921F0040175
:100DF0008161206881692A69114311E0206800F04F
:100E00006DFD2068816941F400618161206881691C
:100E100021F480618161206881692A6941EA0221A7
:100E20008161D2E7206800F085FD2068C16941F04A
:100E30000801C1612068C16921F00401C161206815
:100E4000C1692A69114311E0206800F09FFD206804
:100E5000C16941F40061C1612068C16921F4806108
:100E6000C1612068C1692A6941EA0221C161ACE718
:100E700010B5040003D094F83D0010B107E0012044
:100E800010BD002084F83C00204600F01FF802202E
:100E900084F83D00211D206800F0B4FC012084F896
:100EA000460084F83E0084F83F0084F8400084F84F
:100EB000410084F8420084F8430084F8440084F838
:100EC000450084F83D00002010BD000008B5124A1E
:100ED00001681248914207D1816941F40061816142
:100EE000806900F4006014E0B1F1804F0AD00C4A30
:100EF00091420FD1C16941F00201C161C06900F0A6
:100F0000020006E0C16941F00101C161C06900F061
:100F10000100009008BD0000002C014000100240BC
:100F20000004004010B50446022249B104290ED045
:100F3000082913D094F84100012816D0012010BDD3
:100F400094F83E000128F9D184F83E200FE094F88F
:100F50003F000128F2D184F83F2008E094F84000D7
:100F60000128EBD184F8402001E084F841200122DF
:100F7000206800F07DFC0F492068884203D1426C54
:100F800042F4004242642068884208D0B0F1804FA9
:100F900005D00949884202D00849884204D18168B5
:100FA00001F00701062903D0016841F00101016049
:100FB000002010BD002C014000040040000800404B
:100FC00070477047F8B5016804460868CA684B69FD
:100FD00010F00F0F4FF0000559D003F0010602F496
:100FE0009077374365D0C10705D0D10503D5616C33
:100FF00041F001016164410705D5D90703D0616C57
:1010000041F002016164810705D5D90703D0616C05
:1010100041F004016164010707D502F0200131436A
:1010200003D0616C41F008016164616C00293AD021
:10103000800604D5900602D5204600F0F8FC206812
:101040004069616CC0F38010090700D460B320468A
:1010500000F0C6FC20684069400621D520681430A5
:1010600050E8001F21F0400140E80012002AF5D1AD
:10107000E06BA8B16D494163E06BFFF767F90028A9
:1010800011D0E06B416B01B0BDE8F040084783062A
:101090000FD593060DD52046BDE8F84000F0C7BC3B
:1010A0002046FFF78EFFF8BD2046FFF78AFF6564F4
:1010B000F8BD266B2023012E7CD1C6067AD5D60634
:1010C00078D508684868009048694FF002064006E5
:1010D00040D5E16B086840680004000CE8D0A28DA0
:1010E0008242E5D9E085886920282DD020680C301F
:1010F00050E8001F21F4807140E80012002AF5D169
:101100002068143050E8001F21F0010140E800126F
:10111000002AF5D12068143050E8001F21F040016A
:1011200040E80012002AF5D184F842302563206897
:101130000C3050E8001F21F0100140E80012002A96
:10114000F5D1E06BFFF7DEF86663A08DE18D401A04
:1011500081B22AE0A08DE18D401A81B2E08D002895
:10116000A6D00029A4D022680C3252E8000F20F447
:10117000907042E80007002FF5D12068143050E845
:10118000002F22F0010240E80027002FF5D184F85B
:101190004230256320680C3050E8002F22F0100206
:1011A00040E80023002BF5D166632046FFF708FFD7
:1011B000F8BDFFE705062BD5150629D594F84100A3
:1011C0002128F5D1A068B0F5805F01D12069B0B1C8
:1011D000206A411C2162216800784860E08C401E32
:1011E0000004000CE084E3D12068C16821F0800194
:1011F000C1602068C16841F04001C160D8E7206A41
:101200000088C0F308004860206A801C2062E5E77F
:101210004006CDD55006CBD5CA68204622F0400204
:10122000CA6084F8413000F0A3F8C1E7D119000882
:1012300070B5040004D094F84100002510B106E018
:10124000012070BD84F84050204600F023F824208F
:1012500084F841002068C16821F40051C160204633
:1012600000F046FC2068016921F49041016120688A
:10127000416921F02A0141612068C16841F40051AF
:10128000C1606564202084F8410084F842006563F1
:10129000002070BD30B585B0002400940194029404
:1012A000039400681B49884232D11B48816941F48C
:1012B00080418161816901F480410491816941F03B
:1012C000080181618069154D00F0080004904020FC
:1012D0000090022001900320039069462846FFF702
:1012E00093F88020CDE90004694628460294FFF770
:1012F0008BF80B48416841F0E06141F00401416026
:10130000002211462520FFF7E5F92520FFF7D4F943
:1013100005B030BD0038014000100240000C014013
:101320000000014090F84230202B01D0022070478D
:1013300021B11AB10023036300F036BC01207047CD
:1013400010B50068074988420AD10748007800F0C4
:10135000AFFDBDE81040012203490448FFF7E2BF9A
:1013600010BD00000038014000000020F8000020FF
:101370007047FEE770B586B00024214800940194C0
:1013800002940394816941F010018161816901F047
:1013900010010491816941F020018161816901F0AE
:1013A00020010491816941F004018161816901F0AA
:1013B00004010491816941F0080181618069114E45
:1013C00000F008004FF400550490002229463046F2
:1013D000FFF70FF901200095CDE9010402200390E9
:1013E00069463046FFF710F84FF47040CDE900042D
:1013F000694605480294FFF707F806B070BD000083
:101400000010024000100140000C014010B592B0E5
:1014100000240F941C2108A81094FEF78CFE2021B4
:101420006846FEF788FE20481E4901604721C0E952
:10143000011444F61F61C0E9031444618461FFF79D
:1014400017FD08B1FEF74CFF0F940FA91648109432
:10145000FFF71CFC08B1FEF743FF6020CDE908044C
:101460000A940B940C940D94002208A90E480E9433
:10147000FFF798FC08B1FEF733FF00944FF40050DB
:10148000CDE9044002940194039469460648079408
:10149000FFF7D2FB08B1FEF723FF0348FFF72AFC52
:1014A00012B010BD002C01402000002010B58AB001
:1014B000002407941C2168460894FEF73CFE22484D
:1014C0004FF0804101604721C0E9011444F61F61DB
:1014D000C0E903148461FFF7CBFC08B1FEF700FFFD
:1014E000079407A918480894FFF7D0FB08B1FEF746
:1014F000F7FE6020CDE900040294002269461248FC
:101500000494FFF74FFC08B1FEF7EAFE0422694697
:101510000D48FFF747FC08B1FEF7E2FE08226946D6
:101520000948FFF73FFC08B1FEF7DAFE0C226946D6
:101530000548FFF737FC08B1FEF7D2FE0248FFF777
:10154000D9FB0AB010BD00006800002010B58AB0B9
:10155000002407941C2168460894FEF7ECFD2248FD
:10156000204901604721C0E9011444F61F61C0E928
:1015700003148461FFF77CFC08B1FEF7B1FE079409
:1015800007A919480894FFF781FB08B1FEF7A8FEE8
:101590006020CDE9000402940022694612480494B8
:1015A000FFF700FC08B1FEF79BFE042269460E48D7
:1015B000FFF7F8FB08B1FEF793FE082269460A48D8
:1015C000FFF7F0FB08B1FEF78BFE0C2269460648D8
:1015D000FFF7E8FB08B1FEF783FE0348FFF78AFB3D
:1015E0000AB010BD00040040B00000200C4810B547
:1015F0000A4901604FF4E1314160002181600C2211
:10160000C160C0E904128161C161FFF711FE0028C9
:1016100003D0BDE81040FEF763BE10BD00380140A6
:10162000F8000020FEE7FEE7704700002DE9F05FBC
:101630004FF4617B4FF4FA6A5D4656464FF4C86931
:1016400040F21457544C01E0454505DC20684563E1
:101650000A20FEF7C7FEC846BE4204DB2068866348
:101660000A20FEF7BFFE0A350A3E4545ECDDBE42C4
:10167000EADA4FF47A70FEF7B5FE216840F22620D0
:101680000864D0465046FEF7ADFE4FF4C86540F200
:101690001456D946474601E0454505DB20684563B9
:1016A0000A20FEF79FFEC846BE4204DC206886631F
:1016B0000A20FEF797FE0A3D0A364545ECDABE429F
:1016C000EADD4FF47A70FEF78DFE40F2DC554FF400
:1016D000FA7A2068C5630A20FEF784FE0A3D554564
:1016E000F7DACB464D464FF4FA674FF4C86640F23E
:1016F0001458A14601E0B54207DCD9F800004C4679
:1017000045630A20FEF76EFEA1464446A74205DB6C
:10171000D9F8000087630A20FEF764FE0A350A3F05
:10172000B542E8DDA742E6DA5046FEF75BFED9F89F
:1017300000104FF47A704D460864FEF753FE44469D
:101740005F464FF4FA68A94601E0BE4207DBD9F8CC
:1017500000004D4646630A20FEF744FEA946454672
:10176000AC4205DCD9F8000084630A20FEF73AFE9B
:101770000A340A3EBE42E8DAAC42E6DD54464D4643
:1017800040F2DC562868C4630A20FEF72BFE0A34B8
:10179000B442F7DDBDE8F09F680000207047FEF717
:1017A00033BF30B58FB028216846FEF7C4FC142142
:1017B0000AA8FEF7C0FC01210804CDE900100024AE
:1017C000029402250491CDE907504FF4E0100990EE
:1017D0006846FFF78DF808B172B6FEE70F20CDE935
:1017E0000A054FF48060CDE90C4002210AA80E944E
:1017F000FEF7A2FF002801D072B6FEE70FB030BDA1
:1018000070470000F0B50268164B174C174D4FF0AB
:101810008047984205D0B84203D0A04201D0A842E8
:1018200003D122F070064A683243984205D0B8428C
:1018300003D0A04201D0A84203D122F44074CA6868
:1018400022434C6922F08002224302608A68C2620D
:101850000A688262984201D10969016301214161EC
:10186000F0BD0000002C01400004004000080040D2
:1018700010B501F01F030121046A99408C430462F2
:10188000016A9A401143016210BD000030B5036A3D
:10189000026A22F0010202624268846924F0730540
:1018A0000C682C4323F002058B682B430A4DA84299
:1018B0000BD123F00805CB6822F440722B434D690D
:1018C00023F0040315438A692A434260846149680E
:1018D0004163036230BD0000002C014030B5026A54
:1018E000036A23F010030362436884690D6824F4DB
:1018F000E64444EA05248D6822F0200242EA0512FB
:101900000B4DA8420ED1CD6822F0800242EA0512AA
:101910004D6923F4406343EA85038D6922F0400258
:1019200043EA85034360846149688163026230BD94
:10193000002C014030B5036A026A22F48072026210
:101940004268C46923F4007324F073050C682C43C7
:101950008D6843EA05230C4DA8420ED1CD6823F4CF
:10196000006343EA05234D6922F4405242EA05121E
:101970008D6923F4806342EA05124260C4614968BC
:10198000C163036230BD0000002C014030B5046A21
:10199000026A22F4805202624268C3690D6823F42D
:1019A000E64343EA05238D6824F4005444EA0534F1
:1019B000064DA84204D14D6922F4804242EA8512C4
:1019C0004260C36149680164046230BD002C01407B
:1019D00010B5406A0021C185C184FFF7F2FA10BD3D
:1019E00001680C3151E8002F22F4907241E8002385
:1019F000002BF5D10168143151E8002F22F00102CB
:101A000041E80023002BF5D1016B012909D10168C0
:101A10000C3151E8002F22F0100241E80023002B86
:101A2000F5D1202180F8421000210163704708B5EC
:101A300090F84210222901D0022008BD82684FF49C
:101A400080539A4201D1016921B1816A9A421BD027
:101A50004AB10AE00268816A5268C2F308020A8049
:101A6000816A891C08E0026972B10268526802F05A
:101A70007F020A70816A491C8162C18D491E090476
:101A8000090CC18503D01BE002685268F1E70168C8
:101A9000CA6822F02002CA600168CA6822F4807213
:101AA000CA6001684A6922F001024A61202180F877
:101AB000421000214163026B012A03D0FFF740FC72
:101AC000002008BD016301680C3151E8002F22F0AD
:101AD000100241E80023002BF5D101680A68D20604
:101AE00002D50A6849680091818DFFF769FAE7E736
:101AF00070B5044600680169E26821F44051114361
:101B000001612169A0680843616908432168CA68C6
:101B100041F20C639A430243CA6020684169A2699A
:101B200021F44071114341611E492068884202D16D
:101B3000FEF7A8FE01E0FEF795FE00EBC00101EB09
:101B40000012606864218000B2FBF0F3B3FBF1F394
:101B50006FF018067343B2FBF0F5B2FBF0F605EB3D
:101B60008305322303EB0515B5FBF1F5B6FBF1F662
:101B700005F0F00505EB0615B2FBF0F6B2FBF0F050
:101B8000B0FBF1F06FF01802504306EB800003EB5E
:101B90000010B0FBF1F0216800F00F0028448860CD
:101BA00070BD00000038014081628285C28500213D
:101BB0004164222180F84210016921B10168CA689C
:101BC00042F48072CA6001684A6942F001024A61C7
:101BD0000068C16841F02001C1600020704700002A
:101BE0000148FFF7EFB90000F8000020FEE7000011
:101BF000014A024900F023B8611C00081C000020C3
:101C00000907090E002804DB00F1E02080F8001429
:101C1000704700F00F0000F1E02080F8141D7047BD
:101C200002E008C8121F08C1002AFAD170477047A5
:101C3000002001E001C1121F002AFBD170472DE9ED
:101C4000F04116460F460446002503E03946B047EA
:101C5000641C6D1C20780028F8D12846BDE8F0816E
:101C600003490A681206FCD50149091D086070473E
:101C700000380140FEF7D0FCFFF793FDFFF77AFB39
:101C8000FFF7C4FBFFF7B2FCFFF710FCFFF75EFCA9
:101C90006BA0FFF7ADFF00216C48FFF743F901226D
:101CA0006B496C48FFF73EFB684940F2A460096845
:101CB00048634FF48056664D7700674C4FF4804878
:101CC0004FF400496D1C31462046FEF78DFC01287B
:101CD0000FD139462046FEF787FC50B941462046D1
:101CE000FEF782FC012804D149462046FEF77CFC21
:101CF00030B131462046FEF777FC012804D014E0CD
:101D0000FEF7F0FA55A067E039462046FEF76CFC76
:101D100001280AD141462046FEF766FC012804D17D
:101D200049462046FEF760FC30B131462046FEF7BA
:101D30005BFC012804D014E000F002F94AA04BE05B
:101D400039462046FEF750FC58B941462046FEF77A
:101D50004BFC012805D149462046FEF745FC0128E9
:101D600006D031462046FEF73FFC012804D014E09F
:101D700000F006F941A02FE039462046FEF734FC7A
:101D800001280AD141462046FEF72EFC28B94946D3
:101D90002046FEF729FC012805D031462046FEF7F3
:101DA00023FC20B11AE000F0BBF839A014E039465A
:101DB0002046FEF719FC012810D141462046FEF7C7
:101DC00013FC01280AD149462046FEF70DFC0128E4
:101DD00004D100F0C5F832A0FFF70AFFA878422826
:101DE0000CD1C820FEF7FEFAA878422806D100F0F0
:101DF00087F8C820FEF7F6FAFEF7BAF9A87859284E
:101E00000CD1C820FEF7EEFAA878592806D100F0C8
:101E100077F8C820FEF7E6FAFFF708FCA878522802
:101E20007FF451AFC820FEF7DDFAA8785228F7D129
:101E300000F066F8C820FEF7D5FAFFF7F7FBFEE7DB
:101E4000746573742064656D6F0A0000B000002033
:101E500000000020F8000020000C0140476F5F6682
:101E60006F72776172640A007475726E5F6C65667A
:101E7000745F6C6974746C650A0000007475726E2E
:101E80005F72696768745F6C6974746C650A0000DE
:101E90007475726E5F6C6566745F6269670A0000D4
:101EA0007475726E5F72696768745F6269670A0051
:101EB0001149124B0A786AB1012A13D0022A19D1AA
:101EC0004A789854521CD0B24870052812D100208C
:101ED00048700EE02C280DD14A789854521C4A7054
:101EE000012006E0122805D14A789854521C4A7005
:101EF0000220087070470000070000200100002049
:101F000010B5012251030448FEF773FB034940F268
:101F1000DC500968486310BD00100140B00000208B
:101F200010B5012251030448FEF763FB03494FF447
:101F30007A700968486310BD00100140B0000020AD
:101F400010B5012251030448FEF753FB034940F248
:101F500014500968486310BD00100140B000002013
:101F600010B5012251030448FEF743FB03494FF427
:101F7000FA600968486310BD00100140B0000020FD
:101F800010B5012251030448FEF733FB034940F228
:101F9000A4600968486310BD00100140B000002033
:101FA000010202030405060708090A0B0C0D0E0FB7
:101FB00010100000000000000000010203040607EA
:101FC000080900000000010203040000EC1F0008E3
:101FD0000000002020000000201C00080C20000849
:101FE0002000002020050000301C00080000000038
:101FF00000000000000000000100000010000000D0
:0C200000000000000024F40000000000BC
:04000005080000ED02
:00000001FF
