:020000040800F2
:1000000060050020050100084B1600087713000862
:100010004916000809030008111C00080000000030
:10002000000000000000000000000000C1170008F0
:100030000B030008000000004D160008C31700085D
:100040001F0100081F0100081F0100081F01000810
:100050001F0100081F0100081F0100081F01000800
:100060001F0100081F0100081F0100081F010008F0
:100070001F0100081F0100081F0100081F010008E0
:100080001F0100081F0100081F0100081F010008D0
:100090001F0100081F0100081F0100081F010008C0
:1000A0001F0100081F0100081F0100081F010008B0
:1000B0001F0100081F0100081F0100081F010008A0
:1000C0001F0100081F0100081F0100081F01000890
:1000D0001F010008051C00081F0100081F0100087F
:1000E0001F0100081F0100081F010008DFF810D0E1
:1000F00000F042F800480047DD1D0008AFF3008023
:10010000600500200648804706480047FEE7FEE7F6
:10011000FEE7FEE7FEE7FEE7FEE7FEE7FEE7FEE7B7
:1001200025180008ED000008D2B201E000F8012B0C
:10013000491EFBD270470022F6E710B513460A4667
:1001400004461946FFF7F0FF204610BD30B50B46B8
:10015000014600202022012409E021FA02F59D42F7
:1001600005D303FA02F5491B04FA02F52844151ECB
:10017000A2F10102F1DC30BD064C074D06E0E0685B
:1001800040F0010394E8070098471034AC42F6D3DE
:10019000FFF7B0FF1C1F00083C1F00082DE9F05FAF
:1001A0004FF4617A4FF4FA6B54465D464FF4C866DB
:1001B00040F21458DFF84C9101E0B44207DCD9F862
:1001C00000004F4644630A2000F012F9B946474642
:1001D000BD4205DBD9F8000085630A2000F008F96C
:1001E0000A340A3DB442E8DDBD42E6DA4FF47A70E3
:1001F00000F0FEF8D9F8001040F226204F460864BF
:100200005D46584600F0F4F8B146344640F21456C4
:10021000D04601E0444504DB386844630A2000F01E
:10022000E7F8AE4204DC386886630A2000F0E0F8A4
:100230000A3C0A364445EDDAAE42EBDD4FF47A7003
:1002400000F0D6F840F2DC5440F6C41A3868C463B3
:100250000A2000F0CDF80A345445F7DDC346444681
:100260004D464FF4FA6640F21458B94601E0AC42EC
:1002700007DCD9F800004F4644630A2000F0B8F8C4
:10028000B9464746BE4205DBD9F8000086630A201E
:1002900000F0AEF80A340A3EAC42E8DDBE42E6DACF
:1002A0004FF4FA7000F0A4F8D9F800104FF47A7007
:1002B0004E46086400F09CF84446D8464FF4FA676E
:1002C00001E0454504DB306845630A2000F090F802
:1002D000BC4204DC306884630A2000F089F80A34E8
:1002E0000A3D4545EDDABC42EBDD544640F2DC55B3
:1002F0003068C4630A2000F07BF80A3CAC42F7DAAD
:10030000BDE8F09F84000020FEE7704772B6FEE76C
:1003100010B590F821100022022905D00421816334
:1003200080F82020012010BD01680B6823F00E0327
:100330000B6001680B6823F001030B6090F84030FC
:10034000C46B012101FA03F3636080F8211080F887
:100350002020104610BD000010B590F82110002498
:10036000022903D00421816301243DE001680A6869
:1003700022F00E020A6001680A6822F001020A6097
:100380001A4A0168914201D1012121E0174A143231
:10039000914201D110211BE0144A2832914201D12F
:1003A000891515E0114A3C32914201D189140FE0C0
:1003B0000E4A5032914202D14FF4803108E00B4A8C
:1003C0006432914202D14FF4801101E04FF080710C
:1003D000064A083A5160012180F82110002180F876
:1003E0002010416B01B18847204610BD0800024033
:1003F00070B5044600F004F90546601C02D00448BC
:100400000078044400F0FCF8401BA042FAD370BD11
:10041000280000202DE9F84FDFF8B8910024A9F159
:10042000040B23460F2709F1040AABF1040EC9E0BF
:100430000125A5402A40AA427DD1674ED1F804C0CB
:10044000ACEB0608B44532D014DCBCF1030F3AD053
:1004500009DCBCF1000F2AD0BCF1010F1CD0BCF1AB
:10046000020F31D11DE0BCF1110F17D0BCF1120FFA
:100470002AD119E0B8F5881F19D006DCB8F5803FFD
:1004800015D0B8F5801F1FD111E0B8F5001F0ED0B0
:10049000B8F5041F18D10AE0CB6815E0CB681B1D26
:1004A00012E0CB6808330FE0CB680C330CE08B68AC
:1004B0002BB1012B4FF0080303D0456104E0042366
:1004C00002E0056100E00023FF2A01D8064601E0B2
:1004D00000F104064FEA840501D9A5F12005D6F8FC
:1004E000008007FA05FC28EA0C0803FA05F548EA3B
:1004F0000508C6F800804D68ED0062D5374DAE693D
:1005000046F00106AE61AD6924F0030605F0010571
:100510000095334D06EB050CDCF80850A607360FA6
:1005200007FA06F825EA0805DFF8B880404503D148
:100530004FF0000817E044E0DFF8AC80404502D1FE
:100540004FF001080FE0DFF8A480404502D14FF0E2
:10055000020808E0DFF89880404502D14FF0030818
:1005600001E04FF0040808FA06F848EA0508CCF85C
:1005700008804D68D9F80060ED024D4601D516435C
:1005800000E096432E604D68DAF80060AD025546F3
:1005900001D5164300E096432E604D68DBF80060FD
:1005A000AD035D4601D5164300E096432E604D68CD
:1005B000DEF80060ED03754601D5164300E0964372
:1005C0002E60641C0D682A46E5407FF431AFBDE81B
:1005D000F88F0000080401400000111000100240D4
:1005E0000000014000080140000C014000100140E3
:1005F000001401400AB1016170470904FBE70000E3
:100600000148806870470000280000200248816887
:10061000027811448160704728000020074810B517
:10062000016841F010010160032000F075F80F200F
:1006300000F006F800F024F8002010BD0020024071
:1006400070B50D4D04464FF47A712878B1FBF0F087
:100650000A490968B1FBF0F000F0DCFA48B9102C47
:1006600007D200222146501E00F036F800206C60B0
:1006700070BD012070BD0000280000203400002063
:100680000C4808B5816941F001018161816901F07F
:1006900001010091C16941F08051C161C06900F060
:1006A000805000900448416821F0E06141F0007101
:1006B000416008BD0010024000000140002809DB35
:1006C00000F01F02012191404009800000F1E0206C
:1006D000C0F8001170470000F0B40E4B1B680C46C8
:1006E000C3F30223C3F10705042D00D90425191D06
:1006F000072901D2002300E0DB1E012606FA05F1DE
:10070000491E214099409E40761E16403143F0BC60
:1007100001F090BA0CED00E0064900F0070208680D
:100720004FF6FF03184040EA0220034A10430860D6
:10073000704700000CED00E00000FA052DE9F047DD
:100740000F46050061D0434E306800F00700B84204
:1007500009D2306820F0070038433060306800F07C
:100760000700B84251D128683B4C810712D5400799
:1007700003D5606840F4E06060602878000703D526
:10078000606840F4605060606068A96820F0F00024
:10079000084360602878C00728D06868012810D016
:1007A0002168022810D0890700292EDA616821F01B
:1007B000030101436160FFF723FF804641F288395E
:1007C0000DE021688903EFE78901EDE7FFF718FFE6
:1007D000A0EB0801494502D90320BDE8F087606815
:1007E000696800F00C00B0EB810FEFD1306800F0C9
:1007F0000700B8420BD9306820F00700384330605A
:10080000306800F00700B84201D00120E5E7287801
:10081000400705D56068E96820F4E060084360603F
:100820002878000706D56068296920F4605040EAFE
:10083000C100606000F038F86168084AC1F3031134
:10084000515CC8400649086006480068FFF7F8FE9A
:100850000020C2E70020024000100240021F0008F2
:10086000340000202C000020044805490068496835
:10087000044AC1F30221515CC84070473400002093
:1008800000100240121F000804480549006849682A
:10089000044AC1F3C221515CC840704734000020B3
:1008A00000100240121F00080E4A51680E4801F065
:1008B0000C03042B11D0082B0FD10C48C1F3834338
:1008C000C903C05C0AD55168084AC1F34041921E71
:1008D000515C054A5043B0FBF1F07047044948436E
:1008E000704700000010024000127A00F21E00085B
:1008F00000093D002DE9F84F040070D02078C04D6C
:10090000C00749D06868C0F38100012807D0686833
:10091000C0F38100022809D16868C00306D52868A1
:10092000800339D560680028E7D035E06068B0F50D
:10093000803F0BD010B1B0F5A02F11D0286820F463
:1009400080302860286820F4802002E0286840F485
:1009500080302860606890B1FFF752FE06460AE0DA
:10096000286840F480202860F0E700BFFFF748FEC9
:10097000801B642873D828688003F7D50CE0FFF744
:100980003FFE064605E000BFFFF73AFE801B6428E5
:10099000F0D828688003F7D420789A4E80074FF06B
:1009A00001094FF0000839D5686810F00C0F07D026
:1009B0006868C0F38100022809D16868C00306D4C2
:1009C0002868800714D52069012808D110E0206923
:1009D000B0B1C6F80090FFF713FE074605E00AE144
:1009E000FFF70EFEC01B0228C4D828688007F7D581
:1009F0002868616920F0F80040EAC10028600DE035
:100A0000C6F80080FFF7FCFD074604E0FFF7F8FD9D
:100A1000C01B022823D828688007F7D42078000755
:100A20002CD57948A169D9B1C0F80090FFF7E8FD4D
:100A3000074604E0FFF7E4FDC01B02280FD8686AF0
:100A40008007F7D571484FF4FA510068B0FBF1F018
:100A5000009000BF0098411E0091FAD20EE080E0A5
:100A6000C0F80080FFF7CCFD074604E0FFF7C8FDA3
:100A7000C01B022875D8686A8007F7D42078400721
:100A800060D5E8690027C00008D4E86940F08050CC
:100A9000E861E869012700F0805000905C48016837
:100AA000C90513D40168834641F480710160FFF7E2
:100AB000A7FD824606E000BFFFF7A2FDA0EB0A00FB
:100AC00064284ED8DBF80000C005F5D5E0680128A1
:100AD0000AD008B1052813D0286A20F00100286246
:100AE000286A20F0040002E0286A40F00100286231
:100AF000E06841F2883B98B1FFF782FD82460BE047
:100B0000286A40F004002862EEE700BFFFF778FD96
:100B1000A0EB0A0159455AD8286A8007F6D50CE09F
:100B2000FFF76EFD824605E0FFF76AFDA0EB0A01C4
:100B300059454CD8286A8007F6D41FB1E86920F0DF
:100B40008050E861E06988B36968C1F381010229D6
:100B500044D00228C6F8608004D0FFF751FD044657
:100B600038E034E0FFF74CFD074604E0FFF748FDAE
:100B7000C01B02282BD828688001F7D4206AB0F562
:100B8000803F05D16868A16820F4003008436860A0
:100B9000D4E908010843696821F4741108436860C6
:100BA000C6F86090FFF72CFD044606E025E000BF84
:100BB000FFF726FD001B022809D828688001F7D519
:100BC0001BE000BFFFF71CFD001B022802D9032019
:100BD000BDE8F88F28688001F4D40EE00128F7D032
:100BE0006868226A00F48031914204D1616A00F49D
:100BF0007010884201D00120EAE70020E8E70000F9
:100C000000100240000042428004424234000020B2
:100C10000070004010B5401EB0F1807F01D301206C
:100C200010BD4FF0E02460610F21601701F002F861
:100C30000020A06107202061002010BD10B590F8B1
:100C40003C20012A22D0012280F83C20CA688C680E
:100C500022F4407222434C6822F4806222430C68E2
:100C600022F4006222430C6922F4805222434C6930
:100C700022F400522243C969002322F480420A432D
:100C800001684A6480F83C30002010BD022010BD8D
:100C900070B590F83C20012A26D0012480F83C4011
:100CA000022280F83D2003685A689D6822F0700691
:100CB0000A6832435A600D4B02689A4208D0B2F17A
:100CC000804F05D00A4B9A4202D00A4B9A4204D177
:100CD000496825F080031943916080F83D40002168
:100CE00080F83C10084670BD022070BD002C014009
:100CF000000400400008004010B586B000210091BB
:100D0000019102910391234B026823490224234855
:100D10009A4209D18A6942F004028A61896901F024
:100D20000401049181152CE0B2F1804F20D01C4BBE
:100D30009A422CD18A6942F004028A618A6902F0DF
:100D4000040204928A6942F008028A618969039464
:100D500001F008010491C021CDE900146946FFF7B4
:100D600059FB0320CDE9000469460E4803940CE0CA
:100D70008A6942F004028A61896901F004010491E0
:100D80000F21CDE9001469460394FFF743FB06B039
:100D900010BD0000002C014000100240000801407E
:100DA00000040040000C014070B5044690F83C007F
:100DB00000260D4601280FD0012084F83C006AB1BE
:100DC000042A1DD0082A2FD00C2A3FD0012600204B
:100DD00084F83C00304670BD022070BD206800F0F1
:100DE00067FD2068816941F008018161206881699F
:100DF00021F004018161206881692A69114311E0B1
:100E0000206800F07DFD2068816941F40061816106
:100E10002068816921F480618161206881692A6983
:100E200041EA02218161D2E7206800F095FD206847
:100E3000C16941F00801C1612068C16921F0040164
:100E4000C1612068C1692A69114311E0206800F07E
:100E5000AFFD2068C16941F40061C1612068C169CA
:100E600021F48061C1612068C1692A6941EA0221D7
:100E7000C161ACE710B5040003D094F83D0010B197
:100E800007E0012010BD002084F83C00204600F05F
:100E90001FF8022084F83D00211D206800F0C4FCEA
:100EA000012084F8460084F83E0084F83F0084F86E
:100EB000400084F8410084F8420084F8430084F83C
:100EC000440084F8450084F83D00002010BD000077
:100ED00008B5124A01681248914207D1816941F46C
:100EE00000618161806900F4006014E0B1F1804F1D
:100EF0000AD00C4A91420FD1C16941F00201C1618F
:100F0000C06900F0020006E0C16941F00101C16161
:100F1000C06900F00100009008BD0000002C0140F5
:100F2000001002400004004010B50446022249B1FE
:100F300004290ED0082913D094F84100012816D0B6
:100F4000012010BD94F83E000128F9D184F83E201C
:100F50000FE094F83F000128F2D184F83F2008E028
:100F600094F840000128EBD184F8402001E084F897
:100F700041200122206800F08DFC0F492068884242
:100F800003D1426C42F4004242642068884208D097
:100F9000B0F1804F05D00949884202D00849884203
:100FA00004D1816801F00701062903D0016841F0EE
:100FB00001010160002010BD002C01400004004030
:100FC0000008004070477047F8B50168044608689B
:100FD000CA684B6910F00F0F4FF0000559D003F0AD
:100FE000010602F49077374365D0C10705D0D105DB
:100FF00003D5616C41F001016164410705D5D90752
:1010000003D0616C41F002016164810705D5D90705
:1010100003D0616C41F004016164010707D502F05F
:101020002001314303D0616C41F008016164616CBF
:1010300000293AD0800604D5900602D5204600F05B
:1010400008FD20684069616CC0F38010090700D476
:1010500060B3204600F0D6FC20684069400621D5E8
:101060002068143050E8001F21F0400140E80012D1
:10107000002AF5D1E06BA8B16D494163E06BFFF741
:101080006BF9002811D0E06B416B01B0BDE8F04076
:10109000084783060FD593060DD52046BDE8F840D6
:1010A00000F0D7BC2046FFF78EFFF8BD2046FFF7C3
:1010B0008AFF6564F8BD266B2023012E7CD1C6060D
:1010C0007AD5D60678D508684868009048694FF008
:1010D0000206400640D5E16B086840680004000C39
:1010E000E8D0A28D8242E5D9E085886920282DD0FC
:1010F00020680C3050E8001F21F4807140E8001295
:10110000002AF5D12068143050E8001F21F00101B9
:1011100040E80012002AF5D12068143050E8001F82
:1011200021F0400140E80012002AF5D184F8423055
:10113000256320680C3050E8001F21F0100140E8C2
:101140000012002AF5D1E06BFFF7E2F86663A08D8C
:10115000E18D401A81B22AE0A08DE18D401A81B262
:10116000E08D0028A6D00029A4D022680C3252E8D5
:10117000000F20F4907042E80007002FF5D120689E
:10118000143050E8002F22F0010240E80027002F21
:10119000F5D184F84230256320680C3050E8002FE8
:1011A00022F0100240E80023002BF5D166632046B0
:1011B000FFF708FFF8BDFFE705062BD5150629D573
:1011C00094F841002128F5D1A068B0F5805F01D1E5
:1011D0002069B0B1206A411C216221680078486012
:1011E000E08C401E0004000CE084E3D12068C1685C
:1011F00021F08001C1602068C16841F04001C160F8
:10120000D8E7206A0088C0F308004860206A801C84
:101210002062E5E74006CDD55006CBD5CA6820460A
:1012200022F04002CA6084F8413000F0A3F8C1E720
:10123000F519000870B5040004D094F841000025A9
:1012400010B106E0012070BD84F84050204600F047
:1012500023F8242084F841002068C16821F400515B
:10126000C160204600F056FC2068016921F49041DD
:1012700001612068416921F02A0141612068C1684B
:1012800041F40051C1606564202084F8410084F875
:1012900042006563002070BD30B585B00024009425
:1012A00001940294039400681B49884232D11B4880
:1012B000816941F480418161816901F48041049137
:1012C000816941F0080181618069154D00F00800D5
:1012D0000490402000900220019003200390694672
:1012E0002846FFF797F88020CDE900046946284694
:1012F0000294FFF78FF80B48416841F0E06141F03C
:1013000004014160002211462520FFF7E5F9252060
:10131000FFF7D4F905B030BD00380140001002409D
:10132000000C01400000014090F84230202B01D019
:101330000220704721B11AB10023036300F046BCBC
:101340000120704710B50068074988420AD1074854
:10135000007800F091FDBDE81040012203490448E7
:10136000FFF7E2BF10BD000000380140220000205E
:10137000140100207047FEE7F0B585B0002428482E
:101380000094019402940394816941F010018161F9
:10139000816901F010010491816941F020018161AE
:1013A000816901F020010491816941F004018161AA
:1013B000816901F004010491816941F008018161B2
:1013C0008069184F00F008004FF400550490002287
:1013D00029463846FFF70EF90095022601250396A7
:1013E000CDE9015469463846FFF714F84FF47040D0
:1013F000CDE9000469460C480294FFF70BF80B4F47
:10140000002220213846FFF7F5F82020CDE900051D
:10141000CDE9024669463846FEF7FCFF05B0F0BD4F
:101420000010024000100140000C01400008014083
:1014300010B592B000240F941C2108A81094FEF758
:101440007AFE20216846FEF776FE20481E4901609C
:101450004721C0E9011444F61F61C0E90314446147
:101460008461FFF707FD08B1FEF750FF0F940FA945
:1014700016481094FFF70CFC08B1FEF747FF6020F8
:10148000CDE908040A940B940C940D94002208A949
:101490000E480E94FFF788FC08B1FEF737FF009462
:1014A0004FF40050CDE9044002940194039469463E
:1014B00006480794FFF7C2FB08B1FEF727FF034871
:1014C000FFF71AFC12B010BD002C01403C000020B8
:1014D00010B58AB0002407941C2168460894FEF7D2
:1014E0002AFE22484FF0804101604721C0E90114E3
:1014F00044F61F61C0E903148461FFF7BBFC08B127
:10150000FEF704FF079407A918480894FFF7C0FBEB
:1015100008B1FEF7FBFE6020CDE900040294002232
:10152000694612480494FFF73FFC08B1FEF7EEFE4F
:10153000042269460D48FFF737FC08B1FEF7E6FEC6
:10154000082269460948FFF72FFC08B1FEF7DEFEC6
:101550000C2269460548FFF727FC08B1FEF7D6FEC6
:101560000248FFF7C9FB0AB010BD0000840000204C
:1015700010B58AB0002407941C2168460894FEF731
:10158000DAFD2248204901604721C0E9011440F2F8
:10159000F311C0E903148461FFF76CFC08B1FEF796
:1015A000B5FE079407A919480894FFF771FB08B125
:1015B000FEF7ACFE6020CDE90004029400226946EB
:1015C00012480494FFF7F0FB08B1FEF79FFE0422D7
:1015D00069460E48FFF7E8FB08B1FEF797FE0822C0
:1015E00069460A48FFF7E0FB08B1FEF78FFE0C22C0
:1015F00069460648FFF7D8FB08B1FEF787FE0348A7
:10160000FFF77AFB0AB010BD00040040CC000020B8
:101610000C4810B50A4901604FF4E13141600021E6
:1016200081600C22C160C0E904128161C161FFF7D1
:1016300001FE002803D0BDE81040FEF767BE10BDD4
:101640000038014014010020FEE7FEE7704700006B
:101650002DE9F05F4FF4617B4FF4FA6A5D46564620
:101660004FF4C86940F21457544C01E0454505DC7D
:10167000206845630A20FEF7BBFEC846BE4204DB75
:10168000206886630A20FEF7B3FE0A350A3E454508
:10169000ECDDBE42EADA4FF47A70FEF7A9FE21686B
:1016A00040F226200864D0465046FEF7A1FE4FF4D3
:1016B000C86540F21456D946474601E0454505DB6A
:1016C000206845630A20FEF793FEC846BE4204DC4C
:1016D000206886630A20FEF78BFE0A3D0A364545E0
:1016E000ECDABE42EADD4FF47A70FEF781FE40F29A
:1016F000DC554FF4FA7A2068C5630A20FEF778FEBD
:101700000A3D5545F7DACB464D464FF4FA674FF49C
:10171000C86640F21458A14601E0B54207DCD9F88A
:1017200000004C4645630A20FEF762FEA14644468F
:10173000A74205DBD9F8000087630A20FEF758FEB0
:101740000A350A3FB542E8DDA742E6DA5046FEF721
:101750004FFED9F800104FF47A704D460864FEF73A
:1017600047FE44465F464FF4FA68A94601E0BE4290
:1017700007DBD9F800004D4646630A20FEF738FE25
:10178000A9464546AC4205DCD9F8000084630A202E
:10179000FEF72EFE0A340A3EBE42E8DAAC42E6DD2F
:1017A00054464D4640F2DC562868C4630A20FEF7D2
:1017B0001FFE0A34B442F7DDBDE8F09F840000202C
:1017C0007047FEF723BF30B58FB028216846FEF77B
:1017D000B2FC14210AA8FEF7AEFC01210804CDE9F1
:1017E00000100024029402250491CDE907504FF423
:1017F000E01009906846FFF77DF808B172B6FEE781
:101800000F20CDE90A054FF48060CDE90C4002219C
:101810000AA80E94FEF792FF002801D072B6FEE7E8
:101820000FB030BD70470000F0B50268164B174C82
:10183000174D4FF08047984205D0B84203D0A042E0
:1018400001D0A84203D122F070064A683243984280
:1018500005D0B84203D0A04201D0A84203D122F45F
:101860004074CA6822434C6922F08002224302601D
:101870008A68C2620A688262984201D1096901637A
:1018800001214161F0BD0000002C01400004004036
:101890000008004010B501F01F030121046A9940BF
:1018A0008C430462016A9A401143016210BD00003A
:1018B00030B5036A026A22F001020262426884695A
:1018C00024F073050C682C4323F002058B682B432E
:1018D0000A4DA8420BD123F00805CB6822F44072D0
:1018E0002B434D6923F0040315438A692A43426060
:1018F000846149684163036230BD0000002C0140EF
:1019000030B5026A036A23F01003036243688469F6
:101910000D6824F4E64444EA05248D6822F0200290
:1019200042EA05120B4DA8420ED1CD6822F080028A
:1019300042EA05124D6923F4406343EA85038D6949
:1019400022F0400243EA8503436084614968816371
:10195000026230BD002C014030B5036A026A22F4F5
:10196000807202624268C46923F4007324F0730534
:101970000C682C438D6843EA05230C4DA8420ED118
:10198000CD6823F4006343EA05234D6922F44052F5
:1019900042EA05128D6923F4806342EA051242602F
:1019A000C4614968C163036230BD0000002C01407E
:1019B00030B5046A026A22F4805202624268C36946
:1019C0000D6823F4E64343EA05238D6824F40054AC
:1019D00044EA0534064DA84204D14D6922F4804200
:1019E00042EA85124260C36149680164046230BD05
:1019F000002C014010B5406A0021C185C184FFF769
:101A0000E2FA10BD01680C3151E8002F22F4907207
:101A100041E80023002BF5D10168143151E8002F73
:101A200022F0010241E80023002BF5D1016B0129CE
:101A300009D101680C3151E8002F22F0100241E871
:101A40000023002BF5D1202180F8421000210163F2
:101A5000704708B590F84210222901D0022008BD35
:101A600082684FF480539A4201D1016921B1816AA1
:101A70009A421BD04AB10AE00268816A5268C2F3F6
:101A800008020A80816A891C08E0026972B1026852
:101A9000526802F07F020A70816A491C8162C18D1E
:101AA000491E0904090CC18503D01BE00268526875
:101AB000F1E70168CA6822F02002CA600168CA68BA
:101AC00022F48072CA6001684A6922F001024A6108
:101AD000202180F8421000214163026B012A03D0CB
:101AE000FFF730FC002008BD016301680C3151E8AC
:101AF000002F22F0100241E80023002BF5D10168ED
:101B00000A68D20602D50A6849680091818DFFF7FC
:101B100059FAE7E770B5044600680169E26821F404
:101B20004051114301612169A0680843616908437C
:101B30002168CA6841F20C639A430243CA60206874
:101B40004169A26921F44071114341611E49206835
:101B5000884202D1FEF798FE01E0FEF785FE00EB19
:101B6000C00101EB0012606864218000B2FBF0F359
:101B7000B3FBF1F36FF018067343B2FBF0F5B2FB61
:101B8000F0F605EB8305322303EB0515B5FBF1F504
:101B9000B6FBF1F605F0F00505EB0615B2FBF0F625
:101BA000B2FBF0F0B0FBF1F06FF01802504306EB1F
:101BB000800003EB0010B0FBF1F0216800F00F0093
:101BC0002844886070BD0000003801408162828531
:101BD000C28500214164222180F84210016921B1AF
:101BE0000168CA6842F48072CA6001684A6942F0BA
:101BF00001024A610068C16841F02001C160002013
:101C0000704700000148FFF7DFB900001401002011
:101C1000FEE700000FB4054B10B503A9044A029873
:101C200000F028F810BC5DF814FB0000C91D000886
:101C3000380000200907090E002804DB00F1E0202D
:101C400080F80014704700F00F0000F1E02080F8E9
:101C5000141D704702E008C8121F08C1002AFAD1FB
:101C600070477047002001E001C1121F002AFBD11C
:101C7000704700002DE9FF4F89B09B4604460025C0
:101C800006E025280BD05A460B999047641C6D1C22
:101C900020780028F5D10DB02846BDE8F08F002748
:101CA000B8460122474900E0074314F8013F203BB2
:101CB00002FA03F00842F7D120782E2819D114F83F
:101CC000010F47F004072A280ED06FF02F0220786A
:101CD000A0F1300109290CD808EB880102EB410181
:101CE00000EB0108641CF2E70A98641C50F8048BAE
:101CF0000A9020780028CED0642808D0692806D021
:101D000075281ED05A460B9990476D1C58E00A99C9
:101D10004FF00A0901C90A91002802DA40422D2138
:101D200002E0390504D52B218DF82010012103E0B4
:101D3000F90704D02021F7E78A4608AE0DE000211C
:101D4000FAE70A994FF00A0901C90A91F7E74946EB
:101D5000FEF7FCF9303106F8011D0028F7D1ADEB94
:101D6000060000F12009780701D44FF00108C845AA
:101D700002DDA8EB090000E000208046002706E015
:101D800008A85A46C05D0B9990476D1C7F1C5745AB
:101D9000F6DB04E030205A460B9990476D1CB8F1F1
:101DA0000001A8F10108F5DC05E016F8010B5A4620
:101DB0000B9990476D1CB9F10001A9F10109F4DC00
:101DC000641C65E70928010003490A681206FCD56E
:101DD0000149091D0860704700380140FEF71EFCEC
:101DE000FFF7F1FCFFF7C8FAFFF722FBFFF710FC43
:101DF000FFF76EFBFFF7BCFB13A0FFF70BFF002103
:101E00001948FFF791F804211748FFF78DF80821CA
:101E10001548FFF789F80C211348FFF785F80021D2
:101E20001248FFF781F804211048FFF77DF80122DE
:101E30000F491048FFF778FA00F046F8FEF7AEF9C0
:101E4000FFF706FCFAE7000078756E6A6978696149
:101E50006F63686520636573686920636568656E94
:101E6000677875200A00000084000020CC00002064
:101E700022000020140100201149124B0A786AB197
:101E8000012A13D0022A19D14A789854521CD0B290
:101E90004870052812D1002048700EE02C280DD182
:101EA0004A789854521C4A70012006E0122805D145
:101EB0004A789854521C4A700220087070470000FB
:101EC000230000201C00002008484FF461710268C4
:101ED000516302684FF4FA619163026840F2DC5189
:101EE000D16300684FF47A71016470478400002068
:101EF000010202030405060708090A0B0C0D0E0F68
:101F0000101000000000000000000102030406079A
:101F10000809000000000102030400003C1F000843
:101F2000000000203C000000541C0008781F00083E
:101F30003C00002024050000641C00080000803FD5
:101F4000CDCCCC3D0AD7233C0000000000000000AF
:101F50000000000000000000000000000000000081
:101F60000000000001000000100000000000000060
:081F70000024F4000000000051
:04000005080000ED02
:00000001FF
